:10075D00020D0000020B0000010F0004100000004C
:10076D0000C1000308DFEFF70417000000000214BA
:02077D00062C48
:0A0735007516011207807F647E0034
:10073F00D3EF9400EE940040147D787C00ED1D7093
:0D074F00011CED4C70F7EF1F70E61E80E3FB
:01075C00227A
:0B000E00D2B6D2B4C2B7C2B502073FA1
:0B081300C2B6C2B4D2B7D2B502073F94
:070801001207C87FF47E011D
:0B080800C2B6D2B4D2B7C2B502073F9F
:0B081E00D2B6C2B4C2B7D2B502073F89
:0B082900C2B6C2B4C2B7C2B502073F9E
:10051400AF8CEFFEAD8A7C00E42DF50EEC3EF50DBC
:10052400E4F58CF58AAC0DAD0E1201C97B9A7A996B
:1005340079D9783F12001EE4FBFA79C87842120197
:10054400271202028F138E128D118C10E47FBC7E51
:1005540002FDFCAB13AA12A911A810C312035F5029
:100564000330000EC20075170A75180A75190A02BD
:100574000609E47BE87A03F9F8AF13AE12AD11ACC7
:10058400101202BFAC00AD01AE02AF03E47B64FA0B
:10059400F9F81202BF8F17E47BE87A03F9F8AF1376
:1005A400AE12AD11AC101202BFAC00AD01AE02AF81
:1005B40003E47B64FAF9F81202BFAC00AD01AE02A9
:1005C400AF03E47B0AFAF9F81202BF8F18E47BE860
:1005D4007A03F9F8AF13AE12AD11AC101202BFAC2E
:1005E40000AD01AE02AF03E47B0AFAF9F81202BFD0
:1005F400AC00AD01AE02AF03E47B0AFAF9F81202D3
:0D060400BFAF038F19AF13AE12AD11AC10D4
:0106110022C6
:10079A00758911E4F58CF58A758DF8758B30D2A9B7
:0707AA00D2ABD28ED2AF22C8
:100700007E001208137F017E001208291207DB12F7
:0A071000071A8F288E278D268C25EE
:10071A00E4F51612079A7F0A7E0012073F30B2FDEF
:0A072A00D28C20B2FDC28C1205141F
:0107340022A2
:10078000758911758CB2758AE0758DFB758B24D2D5
:0A079000AFD28CD2A9D28ED2AB22D8
:03000B000207B138
:1007B100C0E0E5167004D200800AD283758CB27550
:0707C1008AE0D28ED0E03285
:03001B0002069E3C
:10069E00C0E0C0D075D000C005C007E51670387533
:1006AE008DF8758B30050CE50C7002050BC394901C
:1006BE00E50B94014033750B00750C00D2B30000AE
:1006CE00000000000000000000000000000000001C
:1006DE00000000C2B38012C283C3E49515FDE495F9
:1006EE0014F58DAF058F8BC28ED007D005D0D0D02C
:0206FE00E032E8
:1007C800120735E4FB75140675152C12073B0BBB95
:0207D8000AF322
:0107DA0022FC
:1007DB00120735E4FB7514077515D012073B0BBBDD
:0207EB000AF30F
:0107ED0022E9
:1007EE00120735E4FB75140475158812073B0BBB15
:0207FE000AF3FC
:0108000022D5
:100370001207C87FE87E0312073F12071A8F248EE8
:10038000238D228C21E47F2DFEFDFCAB24AA23A922
:1003900022A821D312035F400302050AE47F14FE62
:1003A000FDFCAB24AA23A922A821D312035F406835
:1003B0001207058F288E278D268C25E47F2DFEFDC4
:1003C000FCAB28AA27A926A825D312035F40061252
:1003D000080102050A1207EE12071A8F2C8E2B8DC8
:1003E0002A8C2912071A8F2C8E2B8D2A8C29E47FB8
:1003F0002DFEFDFCAB2CAA2BA92AA829D312035F42
:1004000040091207C87FF47E0180071207C87FD019
:100410007E0712081E02050AE47F0AFEFDFCAB24DB
:10042000AA23A922A821D312035F40717F017E0075
:100430001208297F4B1207008F288E278D268C25C6
:10044000E47F2DFEFDFCAB28AA27A926A825D31200
:10045000035F400612080102050A1207EE12071A8E
:100460008F2C8E2B8D2A8C2912071A8F2C8E2B8D78
:100470002A8C29E47F2DFEFDFCAB2CAA2BA92AA8EF
:1004800029D312035F40091207C87FF47E01800759
:100490001207C87FD07E0712081E02050A7F017E60
:1004A000001208297F961207008F288E278D268C30
:1004B00025E47F2DFEFDFCAB28AA27A926A825D37D
:1004C00012035F400512080180401207EE12071A5E
:1004D0008F2C8E2B8D2A8C2912071A8F2C8E2B8D08
:1004E0002A8C29E47F2DFEFDFCAB2CAA2BA92AA87F
:1004F00029D312035F40091207C87FF47E018007E9
:100500001207C87FD07E0712081E7F017E001200EE
:040510000E02037A5A
:10001E00EC4D6011E8497017ED33EC3304600DE4DC
:10002E00FCFFFEFD22E933E8330470F802026E1283
:10003E00023958046009E4CC248150062850090284
:10004E000278284003020275C0E0EB4A7044B98082
:10005E0006D0E0FB020264EF4E701CBD8008EBFF81
:10006E00EAFEE9FD80EBE98DF0A4FEE5F002010762
:10007E00E9CDF9EAFEEBFFEF89F0A4FCE5F0CE89BD
:10008E00F0A42EFFE435F0CD89F0A42DFEE435F07A
:10009E008067EF4E7005BD80D780C3EF8BF0A4ACA8
:1000AE00F0EE8BF0A42CFCE435F0F8EF8AF0A42CE3
:1000BE00E5F038FCE433CB8DF0A42CFCE5F03BF8F6
:1000CE00EE8AF0A42CFCE5F038F8E433CF89F0A4E6
:1000DE002CFCE5F038CF3400CE89F0A42FFFE5F0EC
:1000EE003EFEE433C98DF0A42EFEE5F039CD8AF044
:1000FE00A42FFFE5F03EFEE43DFD33D0E0FB5007BC
:10010E000BBB000F020278EC2CFCEF33FFEE33FE3C
:06011E00ED33FD0202506A
:10012400020278EC5D046005E85904700302026E73
:10013400120239580460F6EC4860F2EC7004FDFEDB
:10014400FF22C860DB2481C85009C39860025006AE
:100154000202759850CAF582E9294B4A7005AB82B0
:1001640002026475F0007C1A7880C3EF9BEE9AED6E
:1001740099400DC3EF9BFFEE9AFEED99FDE842F026
:10018400DC23ACF0D0E0FFD0E0FED0E0FDAB822079
:10019400E7101BEB60BAEC2CFCEF33FFEE33FEED03
:1001A40033FD020250E803F830E705C0F075F000B3
:1001B400EF2FFFEE33FEED33FD40B830E7C280AAE7
:1001C40075F020800E75F010800575F0087D007EB6
:1001D400007F003392D530D503120351EC33401025
:1001E400EF33FFEE33FEED33FDEC33FCD5F0ED22BF
:0E01F400E5F0247EA2D513CC92E7CDCEFF22FB
:10020200EDD2E7CD33EC3392D524814006E4FFFEF4
:10021200FDFC22FCE4CFCECDCC24E0501174FF8053
:10022200EDC3CC13CCCD13CDCE13CECF13CF0470F0
:07023200F030D5DE0203519C
:10023900E9D2E7C933E833F892D5EDD2E7CD33EC0B
:0702490033FC5002B2D52284
:10025000EC30E7100FBF000C0EBE00080DBD00040F
:100260000BEB6014A2D5EB13FCED92E7FD2274FFBB
:10027000FCFDFEFF22E480F8A2D574FF13FC7D8014
:03028000E480EF28
:03000000020612E3
:0C061200787FE4F6D8FD75812C020659B3
:1002830075F008758200EF2FFFEE33FECD33CDCC32
:1002930033CCC58233C5829BED9AEC99E5829840B5
:1002A3000CF582EE9BFEED9AFDEC99FC0FD5F0D692
:1002B300E4CEFBE4CDFAE4CCF9A88222B800C1B9BC
:1002C3000059BA002DEC8BF084CFCECDFCE5F0CBFA
:1002D300F97818EF2FFFEE33FEED33FDEC33FCEB33
:1002E30033FB10D703994004EB99FB0FD8E5E4F9EE
:1002F300FA227818EF2FFFEE33FEED33FDEC33FCDB
:10030300C933C910D7059BE99A4007EC9BFCE99ACE
:10031300F90FD8E0E4C9FAE4CCFB2275F010EF2F13
:10032300FFEE33FEED33FDCC33CCC833C810D70713
:100333009BEC9AE899400AED9BFDEC9AFCE899F84E
:0E0343000FD5F0DAE4CDFBE4CCFAE4C8F922E1
:0E035100C3E49FFFE49EFEE49DFDE49CFC22BD
:10035F00EB9FF5F0EA9E42F0E99D42F0E89C45F0F4
:01036F00226B
:10061E00020370E493A3F8E493A34003F68001F27F
:10062E0008DFF48029E493A3F85407240CC8C333DD
:10063E00C4540F4420C8834004F456800146F6DFAC
:10064E00E4800B010204081020408090075DE47ED8
:10065E00019360BCA3FF543F30E509541FFEE493A1
:10066E00A360010ECF54C025E060A840B8E493A368
:10067E00FAE493A3F8E493A3C8C582C8CAC583CA93
:10068E00F0A3C8C582C8CAC583CADFE9DEE780BE4B
:01077F000079
:00000001FF
